:020000040000fa
:080000000001040000000000f3
:020000040000fa
:100200002f802000609f2000000188000000000077
:10021000050007000c000700c001020000000000fc
:100220000040da000000fe004440a9000000200069
:100230000000e0000300320000002000a001880060
:100240004440a80000000600c01e2000010020005d
:100250001600370062004000e080480091018800ed
:100260009001ba0062004000e080480091018800df
:100270009002ba0062004000e08048000002eb00fb
:100280006028e10005003a008301e900070033001f
:10029000038009000059eb00040037006128e100e9
:1002a000010032000082eb00050007009101880088
:1002b0001001ba000200e000e6ff3a00000005006d
:1002c000910188008002780062004000e0804800d0
:1002d0003559ba008301e900080032002559ba00f7
:1002e0008301e900050032000400e000f4ff320061
:1002f00015d9ba008301e900f1ff3a0000000600b9
:100300008460a900e7416000c419dd0051092000a4
:1003100091407800f2c8b30082c0600083c07000d2
:100320008000fd0095e0b7008000fd00684060009f
:10033000c1082000914078000134a10080c0700005
:100340008000fd008ce0b7008000fd00000006008a
:1003500000088800000006000021ef001108880056
:100360002008880000000600000880000000060049
:100370000000fa008460a9000080fa000040060036
:100380000200fa00d222a900d422a80090ff2f0078
:10039000dbff070000002000edff0700d0cc2100ac
:1003a000000f78009e00780090f82f00eaff070009
:1003b000edff070000408800207320000008e300e4
:1003c00002003600d422a900f9ff3700d422a80089
:0803d000f7ff370000000000f8
:020000040000fa
:1003d800000800000200000000000000000000000b
:020000040000fa
:10000800f4010000f4010000f4010000f401000014
:10001800f4010000f4010000f4010000f401000004
:10002800f4010000f4010000f4010000b801000030
:10003800f4010000f4010000f4010000f4010000e4
:10004800f4010000f4010000f4010000f4010000d4
:10005800f4010000f4010000f4010000f4010000c4
:10006800f4010000f4010000f4010000f4010000b4
:10007800f4010000f4010000f4010000f4010000a4
:10008800f4010000f4010000f4010000f401000094
:10009800f4010000f4010000f4010000f401000084
:1000a800f4010000f4010000f4010000f401000074
:1000b800f4010000f4010000f4010000f401000064
:1000c800f4010000f4010000f4010000f401000054
:1000d800f4010000f4010000f4010000f401000044
:1000e800f4010000f4010000f4010000f401000034
:0800f800f4010000f401000016
:020000040000fa
:10010800f4010000f4010000f4010000f401000013
:10011800f4010000f4010000f4010000f401000003
:10012800f4010000f4010000f4010000b80100002f
:10013800f4010000f4010000f4010000f4010000e3
:10014800f4010000f4010000f4010000f4010000d3
:10015800f4010000f4010000f4010000f4010000c3
:10016800f4010000f4010000f4010000f4010000b3
:10017800f4010000f4010000f4010000f4010000a3
:10018800f4010000f4010000f4010000f401000093
:10019800f4010000f4010000f4010000f401000083
:1001a800f4010000f4010000f4010000f401000073
:1001b800f4010000f4010000f4010000f401000063
:1001c800f4010000f4010000f4010000f401000053
:1001d800f4010000f4010000f4010000f401000043
:1001e800f4010000f4010000f4010000f401000033
:0801f800f4010000f401000015
:020000040000fa
:0403e8000000fe0013
:00000001FF
